:020000040000FA
:0600000007309F00092CEF
:08000800A900030EAA0000008C
:100010000B308F00DD308E0008308506A20B1728CC
:100020007830A200A30B17280A30A300A4010C10FB
:100030002A0E8300A90E290E090082074334413499
:100040004C344C343A34FF34473452344934443419
:100050003A34FF3450344F345734453452343A3400
:10006000FF348207C0348E342534E0342534023422
:10007000CD341A341A34A9342C346A3420349334ED
:10008000B3344734053430341A34C6340034CC30F9
:100090008400A330A5000512803086001F30AB001D
:1000A0000430A000B2011530A6000B1D55280B111D
:1000B000AB0B5528823081001530A600A50B6128B6
:1000C0008F28B20195203008B200003C0319752832
:1000D0003208013C03197A283208023C03197F28B0
:1000E000C0308600DB309500832888308600783069
:1000F0009500832890308600993095008328A030A1
:100100008600BA3095000B1D83282730A700A70B67
:1001100087280B1182308100A60B83285C280130D0
:10012000A40005160030860008002008043A031DCC
:10013000A9280008AF00C0302F05B2000310B20C90
:10014000B20CB20CB20CB20CB20C3208B000A0036C
:1001500008002008033A031DB92830302F05B200EB
:100160000310B20CB20CB20CB20C3208B000A003F7
:1001700008002008023A031DC7280C302F05B200E2
:100180000310B20CB20C3208B000A0030800043017
:10019000A00003302F05B000840A08001C1555305C
:1001A0009D00AA309D009C149C18D4281C119B0A09
:1001B000080031081D20B200FF3C0319E328320873
:1001C0000121B10AD9280800303032070C1AE92879
:1001D000E6289900A00B0800F020A10B0800F420ED
:1001E0000430A0002030FC280A30A1000D300C1A89
:1001F000FA28F72899000A300C1AFF28FC289900E1
:1002000008000C1A0429012999000C1A0800052974
:10021000903098001A0803108C1A102903100B292B
:1002200006301805031918291A08181218160B2970
:100230001A08AF000D3A031908002F0883169A0018
:10024000CE2083122F0801210B290C30B5004A3033
:10025000840083169B0183161C141A089B0A8312C0
:100260000310B2005B30320203183D293A303202EB
:10027000031840293030B20242295730B2024229D5
:100280003730B20232088000840AB503031D2B29DF
:100290000A30D002D10287215408BE000A30BD00C6
:1002A00054213908D5070800B901BA01BB01BC01C6
:1002B0003D08031908000830C200BD0D031C6E295B
:1002C0003E08B907031877213F08BA0703187921B8
:1002D0004008BB0703187B214108BC07C20B7129EA
:1002E00008000310B90DBA0DBB0DBC0D5D29BA0F86
:1002F0000800BB0F0800BC0A08000310BA0A031C60
:1003000008000310BB0A031C0800BC0A0800BE0159
:10031000BF01BF01C001C101B901BA01BB01BC01EC
:1003200008003908BE003A08BF003B08C0003C087E
:10033000C10008000030F1002030F2000310F00D81
:10034000EF0DEE0DED0D0318F109F20B9E2971185A
:10035000AB29F1010800F101711408008316B430D3
:1003600084001530CB000310800D8403CB0BBC2917
:100370007108B40783120800B429B6013518B617FE
:10038000B51836173519B616B5193616351AB61505
:10039000B51A3615351BB614B51B361408000310F4
:1003A0008316B43084001530CA00800D8403CA035C
:1003B000031DD52983120800031103100030CB025E
:1003C000031DE8290130CA02031C080000140800BC
:1003D000CB0BF0290130CA02031C0800801408006E
:1003E000CB0BF8290130CA02031C080000150800D5
:1003F000CB0B002A0130CA02031C0800801508003C
:10040000CB0B082A0130CA02031C080000160800A2
:10041000CB0B102A0130CA02031C0800801608000A
:10042000CB0B182A0130CA02031C08000017080071
:10043000CB0B202A0130CA02031C080080170800D9
:100440001030B5000130B2003030C602C702C80219
:10045000C302C402B201B301461C302A6430B207A1
:100460000A308721BD004708BE0054213908B20771
:100470004808B20787210A30BD004308BE00542156
:100480003908B3074408B307B501B6010A30B7000D
:10049000B8011430B400453049020319542A093018
:1004A000B7000930B800682A3508320203197E2ADD
:1004B000B50AB60A35185D2AB80A38080A3C031985
:1004C000B80134083602031D672AB70AB601542A58
:1004D0003508320203197E2AB50AB60A3518712A80
:1004E000B8033808FF3C031D772A0930B8003408E8
:1004F0003602031D7D2AB703B601682AB703370801
:10050000D0003808D200B5010A30B400B700B601F7
:100510004E3045020319922A5930B500B601013018
:10052000B7009F2A350833020319AC2AB50AB60A68
:1005300034083602031D9E2AB70AB601922A3508EE
:1005400033020319AC2AB503B60A34083602031D78
:10055000AB2AB70AB6019F2AB7033708D10036087D
:10056000D30008005130E9005330EA00D030EB00EE
:10057000F230EC004730E5003C30E6006130E70047
:10058000E430E80003100A304C02031CD32A4E0862
:10059000CF004D08CE004C08CD004B08CC004A08D7
:1005A000CB002430CA00031100304E020319DE2AAA
:1005B000031100304F020319E12AE32A2430CE0050
:1005C000D82A2430CF0087214A08BE002430BD003D
:1005D000542103104B08B90703187D2191210A30DB
:1005E000BD00542103104C08B90703187D21912147
:1005F0001B30BD00542103100A304D02B907031807
:100600007D2191211B30BD00542103100A304E0280
:10061000B90703187D2191211B30BD00542103101F
:100620000A304F02B90703187D2191211030BD0017
:1006300054213C08DA003B08DB003A08DC003908AA
:10064000DD0087210A30BD005008BE005421B330C0
:10065000B2003908B20287215208B2020A30BD0046
:100660005108BE0054213908B30087213208BD006B
:10067000B430BE00542103103308B90703187D219C
:1006800003105308B90703187D2191218030BD0064
:10069000542103105508B90703187D210310403079
:1006A000B90703187D2191210430BD005421BB0EF0
:1006B0000F303B05DD07F0303B05DE00BA0E0F3092
:1006C0003A05DE07F0303A05DF00B90E0F30390584
:1006D000DF07F0303905E0005230B500B5030319EB
:1006E0009D2B0B30B600643084000310800D840312
:1006F000B60303197C2B762BD90DD80DD70DD60D4B
:1007000069085905F0006A085805EF006B0857059D
:10071000EE006C085605ED009A21AE2165085905DA
:10072000F00066085805EF0067085705EE006808F6
:100730005605ED009A21AE216E2BF101AE21AE21BE
:10074000AE21AE21AE21AE21B501B601B701A13077
:10075000B200BD210310360832020318B12BB50ACE
:10076000A92BCF210030031CB62B01308316CA0001
:10077000B5308312840003100830B602031CC22B6C
:10078000840ABB2B08303607073C8316CB00DC21DC
:100790008312B50AB70A37083202031CD02BA92BE3
:1007A000A430B200B10131083120B300B10A0930E0
:1007B000B5000310B401B30D031CDF2B3414B50BCB
:1007C000E22BD32BB20BE62B8312080034088316DE
:1007D000CA00C930840003101530CB00800D84039B
:1007E000CB0BEE2BF501031CF72B0230F5074A0863
:1007F0007507F4070230F7002930F600F430840062
:100800000310800D8403F60B012CF70BFC2B8312D5
:10081000D92B31309000831603130C148312031369
:100820000B308F00DD308E000B178B1783160313F0
:100830005730810083138316031300308500063080
:1008400086009B018312031385018601831618120B
:1008500098160C309900831298178C12851505167E
:100860003030AC0003111A30A8007830A2000A30F2
:10087000A3000130A4002521B222B222CC30840092
:100880002930B50083160C309B00831283161C148C
:100890001A089B0A83128000840AB50B462C831623
:1008A0000313FF309200831203137F3095003C3016
:1008B00097008316031386118312031304309200EA
:1008C0000430B5005A30B2009030980003108C1AF2
:1008D0006B2C03107B2C063018050319732C1A0897
:1008E00018121816662C1A08AF002B3A031D7B2C21
:1008F000B50B7B2CC02D0B1D662C0B11B20B662C7F
:100900002408003E0319872C8C1A002D802C4720C8
:040910001A08802C15
:100A00008B1305308A00AE0103108C1A092D0310D8
:100A1000042D063018050319112D1A08181218167E
:100A2000042D1A08AF00243A031D1A2D0130AE0020
:100A30000310042D17302E02031C1F2D042D2E0829
:100A40008207042D382D3E2D442D4A2D502D562D34
:100A50005C2D622D682D6E2D762D802D862D8A2D94
:100A60008E2D942D982D9E2DA22DA62DAA2DB02D24
:100A70002F08473A031D012DAE0A042D2F08503AC6
:100A8000031D012DAE0A042D2F08473A031D012D29
:100A9000AE0A042D2F08473A031D012DAE0A042D7E
:100AA0002F08413A031D012DAE0A042D2F082C3AC0
:100AB000031D012DAE0A042D33302F020318012D22
:100AC000AE0A042D3A302F020318012DAE0A042D70
:100AD00036302F020318012DAE0A042D2F08AD0069
:100AE0003A302F020318012DAE0A042D36302F02A2
:100AF0000318012D30302F020319B52DAE0A042D35
:100B00002F082C3A031D042DAE0A042D2F08C30014
:100B1000AE0A042D2F08C400AE0A042D2F082C3A6B
:100B2000031D042DAE0A042D2F08C500AE0A042DA6
:100B30002F082C3A031D012DAE0A042D2F08C600E4
:100B4000AE0A042D2F08C700AE0A042D2F08C800D6
:100B5000AE0A042D2F082C3A031D042DAE0A042DD5
:100B60002F08C90008308506012D2C082D02031D11
:100B70007E2D85158A0125212022B2224720012DB4
:100B80008B13F420F420B10183160630CB009B01B7
:100B900030309A00CE20CB0BC82D9B018312D92078
:100BA0000821F420831606309B008312B10AD92055
:100BB0000821F42083160A309B008312B10AD92041
:100BC00008212521B222CC3084002930B5008316BB
:100BD0000C309B008312000883169A00CE208312EB
:100BE000840AB50BEB2DF420F4202030FC20831672
:100BF0000C309B0083122930B5000430A0000A306D
:100C0000A100B20183161C141A089B0A8312AF00BC
:100C1000C0302F05B200B20CB20CB20CB20CB20C48
:100C2000B20CE42030302F05B200B20CB20CB20C82
:100C3000B20CE4200C302F05B200B20CB20CE42050
:0E0C400003302F05B200E420B50B022E262E45
:02400E00213F50
:00000001FF
