:020000040000FA
:100000000128831603130030850000308600831218
:1000100003138501860183160313FF3092008312B8
:1000200003137F3095003C3097008316031386112D
:100030008312031304309200783095003A203A205E
:100040003A203A203A209D3095003A203A203A2032
:100050003A203A20C23095003A203A203A203A20FD
:100060003A20E73095003A203A203A203A203A20C8
:100070001C2839283F203F203F203F2008004220F5
:1000800042200800FF30C20050288030C2005028B3
:100090004030C20050282030C20050281030C2002A
:1000A000FF30C300C30B5228C20B502808000000C9
:02400E00213F50
:00000001FF
